:0900000002064BAE0702085E3255
:03000B000206D713
:03001B00020008D8
:10002300020749E519240DF8E6051922780A300775
:1000330002780DE475F0011205460203822000EBFD
:100043007F2ED2008018EF540F2490D43440D4FF75
:1000530030040BEF24BFB41A0050032461FFE51AE8
:100063006002151A051DE51D7002051C30070D7889
:100073000AE475F001120546EF0205340200037429
:1000830003D2078003E4C207F5198B0A8A0B890C94
:10009300E4F51AF51CF51DE51A60077F20120061CF
:1000A30080F5751BFFC201C200C202C203C205C2B2
:1000B30006C20812002FFF700D3007057F001200E3
:1000C30072AF1DAE1C22B4255FC2D5C20412002F2D
:1000D300FF24D0B40A00501A75F00A781A30D505F7
:1000E30008B6FF0106C6A426F620D5047002D20383
:1000F30080D924CFB41A00EF5004C2E5D20402021F
:1001030072D20180C6D20080C0D20280BCD2D58018
:10011300BAD20580B47F201200612002077401B5B2
:100123001A0040F1120026FF12006102009AD20861
:10013300D2068095120026FB120026FA120026F939
:100143004A4B700679437A037BFF20022EE51A603F
:100153002A7E008E8275830012039B60060EEE6575
:100163001B70F0C2D5EBC0E0EAC0E0E9C0E0EE12DC
:1001730002B9D0E0F9D0E0FAD0E0FB120382FF60CD
:10018300AAEBC0E0EAC0E0E9C0E0120061D0E024DD
:1001930001F9D0E03400FAD0E0FBE51B0460DCD5C4
:1001A3001BD980877BFF7A0279B5D202809C7910B4
:1001B30080027908C206C2088008D2D5790A800471
:1001C300790AC2D5E51B047002F51BE4FAFDFEFFB4
:1001D300120026FC7B08200113120026FD7B103041
:1001E300000A120026FE120026FF7B20EC3382D584
:1001F30092D55013C3E43000069FFFE49EFEE42033
:1002030001039DFDE49CFCE4CBF8C201EC700CCF30
:10021300CECDCCE824F8F870F38017C3EF33FFEEAC
:1002230033FEED33FDEC33FCEB33FB994002FB0F64
:10023300D8E9EB300105F8D0E0C448B201C0E00AC8
:10024300EC4D4E4F78207B0070C2EAB51B0040BCDA
:10025300C0E01202BBD0F0D0E0200104C4C0E0C46F
:10026300B201C0F012004AD0F0D5F0EB02009A12AE
:10027300055601375301B15801084C01044201B539
:100283004F01BD4401BD49011D4301C35501A746AB
:1002930001A74501A747036350010C2D01102E014F
:1002A300332B011423013120034C2A00CC480000D6
:1002B300012B3F3F3F00790AA2D5200314300509E3
:1002C300B910020404B9080104A2D52006025001A2
:1002D300042002689202B51A005034C0E07F203037
:1002E30003197F30A20272067205500F120312C265
:1002F30002C206C205C2087F30800F300503E9C081
:10030300E0120061300503D0E0F9D0E0B51ACC303B
:1003130005177F30B9100C1200617F583004077F36
:10032300788003B908031200613002057F2D0200B3
:10033300617F202008F87F2B2006F322920280CFD2
:10034300286E756C6C2900D2011200263001F8C2A8
:1003530001781A30D50108F60200CC2D50434958D4
:100363001200262403B405004001E490035E9312B7
:100373000052743A120052D203751A040201B1BB3F
:10038300010689828A83E0225002E722BBFE02E350
:100393002289828A83E49322BB010CE58229F582B8
:1003A300E5833AF583E0225006E92582F8E622BB8D
:1003B300FE06E92582F8E222E58229F582E5833A01
:1003C300F583E49322F8BB010DE58229F582E583E9
:1003D3003AF583E8F0225006E92582C8F622BBFEEF
:1003E30005E92582C8F222BC000BBE0029EF8DF07F
:1003F30084FFADF022E4CCF875F008EF2FFFEE3365
:10040300FEEC33FCEE9DEC984005FCEE9DFE0FD513
:10041300F0E9E4CEFD22EDF8F5F0EE8420D21CFEE7
:10042300ADF075F008EF2FFFED33FD400798500650
:10043300D5F0F222C398FD0FD5F0EA2275F00875C6
:100443008200EF2FFFEE33FECD33CDCC33CCC5820C
:1004530033C5829BED9AEC99E58298400CF582EEC8
:100463009BFEED9AFDEC99FC0FD5F0D6E4CEFBE4B0
:10047300CDFAE4CCF9A88222B800C1B90059BA0078
:100483002DEC8BF084CFCECDFCE5F0CBF97818EFD3
:100493002FFFEE33FEED33FDEC33FCEB33FB10D7D4
:1004A30003994004EB99FB0FD8E5E4F9FA22781895
:1004B300EF2FFFEE33FEED33FDEC33FCC933C910F0
:1004C300D7059BE99A4007EC9BFCE99AF90FD8E022
:1004D300E4C9FAE4CCFB2275F010EF2FFFEE33FEF4
:1004E300ED33FDCC33CCC833C810D7079BEC9AE867
:1004F30099400AED9BFDEC9AFCE899F80FD5F0DAE8
:10050300E4CDFBE4CCFAE4C8F922EB9FF5F0EA9ED4
:1005130042F0E99D42F0EC6480C864809845F02283
:10052300EB9FF5F0EA9E42F0E99D42F0E89C45F02E
:1005330022BB010689828A83F0225002F722BBFE86
:1005430001F322FAE6FB0808E6F925F0F618E6CAF5
:100553003AF622D083D082F8E49370127401937038
:100563000DA3A393F8740193F5828883E473740253
:10057300936860EFA3A3A380DF7F0A7E0012088144
:1005830043BA807F03EFF452B152B290FE23E0FEF0
:10059300EFF4FFEE5FF07F0CEFF4FE52B1EF42B2E7
:1005A300E05EF07F20EF42C9F452CA90FE15E04F9F
:1005B300F0C28C5389FC438E805389FB538FFE75A5
:1005C3008CA2758A4043B702D2B9D2A9D28CE598DE
:1005D300543F4440F598E4750D34F50CF50BF50ADA
:1005E300FFFE7D01FCAB0DAA0CA90BA80AC31205E3
:1005F300235054C3E4950DF50DE4950CF50C7401EB
:10060300950BF50BE4950AF50AC28E5389CF438EF9
:10061300405389BFE4FB7A01F9F8AF0DAE0CAD0B83
:10062300AC0A12047B8F8DE50DFF8F8BC2AB538F0A
:10063300FD5389BF538EFE43B710C2BCD2AC53A245
:100643003FD29CD28ED2AF22787FE4F6D8FD75815B
:10065300260206920207ACE493A3F8E493A34003B3
:10066300F68001F208DFF48029E493A3F854072409
:100673000CC8C333C4540F4420C8834004F45680C9
:100683000146F6DFE4800B0102040810204080904D
:100693000898E47E019360BCA3FF543F30E50954FE
:1006A3001FFEE493A360010ECF54C025E060A84071
:1006B300B8E493A3FAE493A3F8E493A3C8C582C868
:1006C300CAC583CAF0A3C8C582C8CAC583CADFE93D
:1006D300DEE780BEC0E0C0F0C083C082C0D075D06A
:1006E30000C000C001C002C003C004C005C006C0F2
:1006F30007051FE51F7002051EFFAE1EE4FCFD7B10
:10070300607AEAF9F8C312050D5006751E00751FCD
:1007130000AE1EAF1F7C037DE81203EAED4C7002AE
:10072300D209E526D3940040021526D007D006D07F
:1007330005D004D003D002D001D000D0D0D082D0D5
:1007430083D0F0D0E032C0E0C083C082C0D075D087
:1007530000C00730981DC298E525C39420503FAFD1
:1007630025052574002FF582E43400F583E599F01F
:10077300752603309928C299E5226523601DAF22AF
:10078300052274202FF582E43400F583E0F599E522
:1007930022C3944040087522008003752400D007CB
:1007A300D0D0D082D083D0E03212057C7FD07E07B8
:1007B3001208817BFF7A0879A6120088750D0175EE
:1007C3000E00750F007510017511007512607B0026
:1007D3007A00792212080D8F08E508D3940040DCD3
:1007E3007BFF7A0879B885080D120088E4F509E5DE
:1007F30009C3950850C674602509F582E43400F5F1
:1008030083E0FF12085E050980E58B0A8A0B890CD9
:10081300E4FF90000312039BFE600B90000412039D
:100823009BD3940040037F00221EEEF4601FAB0DA8
:10083300AA0EA90F8F8275830012039BAB10AA1116
:10084300A9128F827583001203C80F80DCAB0AAA3A
:100853000BA90C900003E41203C82274202523F58E
:1008630082E43400F583EFF00523E523C39440408D
:1008730003E4F523E5247005752401D299227D60F4
:100883007C09ED1D70011C144C70F7EF1F70011EE5
:10089300144E70EA2205220000000000021E000030
:1008A300C1090053797374656D20696E6974204FB3
:0F08B3004B210D0A006E756D3A2562640D0A0027
:00000001FF
