:0900000002071AAE070209FD32E5
:0F000B000207A690FE82E030E6F9E054BFF02233
:03001B00020008D8
:10002300020888E519240DF8E6051922780A300735
:1000330002780DE475F0011205460203822000EBFD
:100043007F2ED2008018EF540F2490D43440D4FF75
:1000530030040BEF24BFB41A0050032461FFE51AE8
:100063006002151A051DE51D7002051C30070D7889
:100073000AE475F001120546EF0203C80200037497
:1000830003D2078003E4C207F5198B0A8A0B890C94
:10009300E4F51AF51CF51DE51A60077F20120061CF
:1000A30080F5751BFFC201C200C202C203C205C2B2
:1000B30006C20812002FFF700D3007057F001200E3
:1000C30072AF1DAE1C22B4255FC2D5C20412002F2D
:1000D300FF24D0B40A00501A75F00A781A30D505F7
:1000E30008B6FF0106C6A426F620D5047002D20383
:1000F30080D924CFB41A00EF5004C2E5D20402021F
:1001030072D20180C6D20080C0D20280BCD2D58018
:10011300BAD20580B47F201200612002077401B5B2
:100123001A0040F1120026FF12006102009AD20861
:10013300D2068095120026FB120026FA120026F939
:100143004A4B700679437A037BFF20022EE51A603F
:100153002A7E008E8275830012039B60060EEE6575
:100163001B70F0C2D5EBC0E0EAC0E0E9C0E0EE12DC
:1001730002B9D0E0F9D0E0FAD0E0FB120382FF60CD
:10018300AAEBC0E0EAC0E0E9C0E0120061D0E024DD
:1001930001F9D0E03400FAD0E0FBE51B0460DCD5C4
:1001A3001BD980877BFF7A0279B5D202809C7910B4
:1001B30080027908C206C2088008D2D5790A800471
:1001C300790AC2D5E51B047002F51BE4FAFDFEFFB4
:1001D300120026FC7B08200113120026FD7B103041
:1001E300000A120026FE120026FF7B20EC3382D584
:1001F30092D55013C3E43000069FFFE49EFEE42033
:1002030001039DFDE49CFCE4CBF8C201EC700CCF30
:10021300CECDCCE824F8F870F38017C3EF33FFEEAC
:1002230033FEED33FDEC33FCEB33FB994002FB0F64
:10023300D8E9EB300105F8D0E0C448B201C0E00AC8
:10024300EC4D4E4F78207B0070C2EAB51B0040BCDA
:10025300C0E01202BBD0F0D0E0200104C4C0E0C46F
:10026300B201C0F012004AD0F0D5F0EB02009A12AE
:10027300055601375301B15801084C01044201B539
:100283004F01BD4401BD49011D4301C35501A746AB
:1002930001A74501A747036350010C2D01102E014F
:1002A300332B011423013120034C2A00CC480000D6
:1002B300012B3F3F3F00790AA2D5200314300509E3
:1002C300B910020404B9080104A2D52006025001A2
:1002D300042002689202B51A005034C0E07F203037
:1002E30003197F30A20272067205500F120312C265
:1002F30002C206C205C2087F30800F300503E9C081
:10030300E0120061300503D0E0F9D0E0B51ACC303B
:1003130005177F30B9100C1200617F583004077F36
:10032300788003B908031200613002057F2D0200B3
:10033300617F202008F87F2B2006F322920280CFD2
:10034300286E756C6C2900D2011200263001F8C2A8
:1003530001781A30D50108F60200CC2D50434958D4
:100363001200262403B405004001E490035E9312B7
:100373000052743A120052D203751A040201B1BB3F
:10038300010689828A83E0225002E722BBFE02E350
:100393002289828A83E49322BB010CE58229F582B8
:1003A300E5833AF583E0225006E92582F8E622BB8D
:1003B300FE06E92582F8E222E58229F582E5833A01
:1003C300F583E49322BB010689828A83F0225002DB
:1003D300F722BBFE01F322F8BB010DE58229F5826A
:1003E300E5833AF583E8F0225006E92582C8F62230
:1003F300BBFE05E92582C8F222BC000BBE0029EF33
:100403008DF084FFADF022E4CCF875F008EF2FFFF8
:10041300EE33FEEC33FCEE9DEC984005FCEE9DFEC6
:100423000FD5F0E9E4CEFD22EDF8F5F0EE8420D20D
:100433001CFEADF075F008EF2FFFED33FD4007987C
:100443005006D5F0F222C398FD0FD5F0EA2275F0DD
:1004530008758200EF2FFFEE33FECD33CDCC33CCC6
:10046300C58233C5829BED9AEC99E58298400CF5E1
:1004730082EE9BFEED9AFDEC99FC0FD5F0D6E4CE0F
:10048300FBE4CDFAE4CCF9A88222B800C1B9005943
:10049300BA002DEC8BF084CFCECDFCE5F0CBF97810
:1004A30018EF2FFFEE33FEED33FDEC33FCEB33FBA4
:1004B30010D703994004EB99FB0FD8E5E4F9FA222E
:1004C3007818EF2FFFEE33FEED33FDEC33FCC93329
:1004D300C910D7059BE99A4007EC9BFCE99AF90FF1
:1004E300D8E0E4C9FAE4CCFB2275F010EF2FFFEE5D
:1004F30033FEED33FDCC33CCC833C810D7079BECA8
:100503009AE899400AED9BFDEC9AFCE899F80FD51F
:10051300F0DAE4CDFBE4CCFAE4C8F922EB9FF5F082
:10052300EA9E42F0E99D42F0EC6480C864809845FD
:10053300F022EB9FF5F0EA9E42F0E99D42F0E89C41
:1005430045F022FAE6FB0808E6F925F0F618E6CAB4
:100553003AF622D083D082F8E49370127401937038
:100563000DA3A393F8740193F5828883E473740253
:10057300936860EFA3A3A380DF7F0A7E00120A3C87
:1005830043BA807F03EFF452B152B290FE23E0FEF0
:10059300EFF4FFEE5FF07F0CEFF4FE52B1EF42B2E7
:1005A300E05EF07F20EF42C9F452CA90FE15E04F9F
:1005B300F090FE80E04440F0E054C0440DF090FE23
:1005C30082E4F090FE88E054FEF090FE81E0547FD8
:1005D300F053B6BF43B54053BACF90FE80E044809A
:1005E300F0C28C5389FC438E805389FB538FFE7575
:1005F3008CA2758A4043B702D2B9D2A9D28CE598AE
:10060300543F4440F598E4750D34F50CF50BF50AA9
:10061300FFFE7D01FCAB0DAA0CA90BA80AC31205B2
:10062300355054C3E4950DF50DE4950CF50C7401A8
:10063300950BF50BE4950AF50AC28E5389CF438EC9
:10064300405389BFE4FB7A01F9F8AF0DAE0CAD0B53
:10065300AC0A12048D8F8DE50DFF8F8BC2AB538FC8
:10066300FD5389BF538EFE43B710C2BCD2AC53A215
:100673003FD29CD28ED2AF2212057C7FD07E07124E
:100683000A3C7BFF7A0C79EE120088120A207BFF6A
:100693007A0D7900120088750D01750E00750F0033
:1006A3007510017511007512607B007A00792212B2
:1006B30008EB8F08E508D39400402A7BFF7A0D7975
:1006C3001285080D120088E4F509E509C395085061
:1006D3001474602509F582E43400F583E0FF120900
:1006E300FD050980E57BFF7A0D791C750F08E4FD94
:1006F3007F261209AA7BFF7A0D7927750F087D01E2
:10070300E4FF1209AA7BFF7A0D7936750F087D0283
:10071300E4FF1209AA8080787FE4F6D8FD75812A68
:1007230002076102067BE493A3F8E493A34003F674
:100733008001F208DFF48029E493A3F85407240C22
:10074300C8C333C4540F4420C8834004F456800103
:1007530046F6DFE4800B0102040810204080900A73
:1007630053E47E019360BCA3FF543F30E509541F5B
:10077300FEE493A360010ECF54C025E060A840B807
:10078300E493A3FAE493A3F8E493A3C8C582C8CA85
:10079300C583CAF0A3C8C582C8CAC583CADFE9DE58
:1007A300E780BEC0E0C0F0C083C082C0D075D00077
:1007B300C000C001C002C003C004C005C006C0071A
:1007C300051FE51F7002051EFFAE1EE4FCFD7B60E6
:1007D3007AEAF9F8C312051F5006751E00751F004B
:1007E300AE1EAF1F7C037DE81203FCED4C7002D2FA
:1007F30009E526D3940040021526D007D006D0057C
:10080300D004D003D002D001D000D0D0D082D08386
:10081300D0F0D0E0328F108D118B128A138914AB74
:1008230012AA13A914120382FFC394204056EFD3D4
:10083300947E5050E510947A400CE4F5100511AD08
:1008430011AF101209D7AB12AA13A91412038224F1
:10085300E0F52A75F006A42498F9740A35F0FA7BBA
:10086300FF8B27F5288929751A067D407F781209A1
:100873007C74062510F51074012514F514E4351362
:10088300F513809B22C0E0C083C082C0D075D00026
:10089300C00730981DC298E525C39420503FAF256B
:1008A300052574002FF582E43400F583E599F0758E
:1008B3002603309928C299E5226523601DAF2205DE
:1008C3002274202FF582E43400F583E0F599E522C4
:1008D300C3944040087522008003752400D007D0DC
:1008E300D0D082D083D0E0328B0A8A0B890CE4FF0C
:1008F30090000312039BFE600B90000412039BD332
:10090300940040037F00221EEEF4601FAB0DAA0E7D
:10091300A90F8F8275830012039BAB10AA11A91232
:100923008F827583001203DA0F80DCAB0AAA0BA94E
:100933000C900003E41203DA228F0AE4F50BAD0BEB
:10094300E4FF1209D7120A867F78120A78120A6F17
:100953007F40120A78120A6FE4F50CAF0A120A7884
:10096300120A6F050CE50CC3948040EF120A8F0541
:100973000BE50BC3940840C622AE07120A69EDF4D7
:100983006008AF05120A78120A6F120382FF120A77
:1009930078120A6FE51A64016007740129F9E43AD1
:1009A300FAD51AE6020A8F8F0A8D0B8B0C8A0D89F2
:1009B3000EE50AD39480501BE50B940850151209D9
:1009C300D7E50FB4080DAB0CAA0DA90EAD0BAF0AFA
:1009D30012081822AE07ED24B0900080F0EE540FF9
:1009E300A3F0EEC4540F4410A3F07B017A00798086
:1009F300751A03E4FD7F7802097C74202523F582B0
:100A0300E43400F583EFF00523E523C3944040036A
:100A1300E4F523E5247005752401D299227F147E21
:100A230000120A3C7BFF7A0C79D2751A1CE4FD7F15
:100A33007812097CE4FF02093C7D607C09ED1D709E
:100A4300011C144C70F7EF1F70011E144E70EA2244
:100A5300012A000327000000052200000000000215
:100A63001E0000C10900120A86120A7890FE8174E2
:100A730003F002000E90FE86EFF090FE817402F008
:100A830002000E90FE817401F002000E90FE81744C
:100A930006F002000E0000000000000000002F001E
:100AA3000000000700070000147F147F1400242AAD
:100AB3007F2A12006264081323003649552250002E
:100AC300000503000000001C224100000041221C1D
:100AD300000014083E08140008083E0808000050EF
:100AE30030000000080808080800006060000000EB
:100AF3002010080402003E5149453E0000427F4059
:100B030000004261514946002141454B3100181410
:100B1300127F10002745454539003C4A49493000BA
:100B23000171090503003649494936000649492937
:100B33001E00003636000000005636000000081480
:100B4300224100001414141414000041221408005C
:100B5300020151090600324979413E007E1111110B
:100B63007E007F49494936003E41414122007F4191
:100B730041221C007F49494941007F0909090100BD
:100B83003E4149497A007F0808087F0000417F41C0
:100B930000002040413F01007F08142241007F40B4
:100BA300404040007F020C027F007F0408107F005A
:100BB3003E4141413E007F09090906003E41512162
:100BC3005E007F0919294600464949493100010160
:100BD3007F0101003F4040403F001F2040201F0095
:100BE3003F4038403F00631408146300070870084F
:100BF3000700615149454300007F41410000020461
:100C0300081020000041417F00000402010204009B
:100C1300404040404000000102040000205454546E
:100C230078007F4844443800384444442000384422
:100C330044487F00385454541800087E09010200C8
:100C43000C5252523E007F080404780000447D4059
:100C530000002040443D00007F1028440000004174
:100C63007F4000007C04180478007C0804047800AA
:100C7300384444443800FC2424241800182424183D
:100C8300FC007C0804040800485454542000043F2A
:100C9300444424003C4040207C001C2040201C0095
:100CA3003C4030403C004428102844001CA0A0A035
:100CB3007C004464544C44000010FE820000000099
:100CC300FF00000082FE100000020101020201AEDB
:100CD3002002B0C800104081FFA1A83FD300D580F7
:100CE300D9F1DA12DB308D14A4A6AF53797374658E
:100CF3006D20696E6974204F4B210D0A004465769F
:100D030069636520696E6974204F4B210D0A006E7B
:100D1300756D3A2562640D0A005354433847314BCD
:100D2300313741004F4C454420546573742044656A
:100D33006D6F006162636465666768696A6B6C6D99
:100D43006E6F707172737475767778797A3A4142FF
:100D5300434445464748494A4B4C4D4E4F505152E8
:090D6300535455565758595A00D3
:00000001FF
